{
  "address": "0x3d351734Aa44950709222792f66aFfd737361f32",
  "abi": [
    {
      "inputs": [
        {
          "internalType": "string",
          "name": "lowSvg",
          "type": "string"
        },
        {
          "internalType": "string",
          "name": "highSvg",
          "type": "string"
        }
      ],
      "stateMutability": "nonpayable",
      "type": "constructor"
    },
    {
      "anonymous": false,
      "inputs": [
        {
          "indexed": true,
          "internalType": "address",
          "name": "owner",
          "type": "address"
        },
        {
          "indexed": true,
          "internalType": "address",
          "name": "approved",
          "type": "address"
        },
        {
          "indexed": true,
          "internalType": "uint256",
          "name": "tokenId",
          "type": "uint256"
        }
      ],
      "name": "Approval",
      "type": "event"
    },
    {
      "anonymous": false,
      "inputs": [
        {
          "indexed": true,
          "internalType": "address",
          "name": "owner",
          "type": "address"
        },
        {
          "indexed": true,
          "internalType": "address",
          "name": "operator",
          "type": "address"
        },
        {
          "indexed": false,
          "internalType": "bool",
          "name": "approved",
          "type": "bool"
        }
      ],
      "name": "ApprovalForAll",
      "type": "event"
    },
    {
      "anonymous": false,
      "inputs": [
        {
          "indexed": true,
          "internalType": "uint256",
          "name": "tokenId",
          "type": "uint256"
        },
        {
          "indexed": false,
          "internalType": "int256",
          "name": "highValue",
          "type": "int256"
        }
      ],
      "name": "CreatedNFT",
      "type": "event"
    },
    {
      "anonymous": false,
      "inputs": [
        {
          "indexed": true,
          "internalType": "address",
          "name": "previousOwner",
          "type": "address"
        },
        {
          "indexed": true,
          "internalType": "address",
          "name": "newOwner",
          "type": "address"
        }
      ],
      "name": "OwnershipTransferred",
      "type": "event"
    },
    {
      "anonymous": false,
      "inputs": [
        {
          "indexed": true,
          "internalType": "address",
          "name": "from",
          "type": "address"
        },
        {
          "indexed": true,
          "internalType": "address",
          "name": "to",
          "type": "address"
        },
        {
          "indexed": true,
          "internalType": "uint256",
          "name": "tokenId",
          "type": "uint256"
        }
      ],
      "name": "Transfer",
      "type": "event"
    },
    {
      "inputs": [
        {
          "internalType": "address",
          "name": "to",
          "type": "address"
        },
        {
          "internalType": "uint256",
          "name": "tokenId",
          "type": "uint256"
        }
      ],
      "name": "approve",
      "outputs": [],
      "stateMutability": "nonpayable",
      "type": "function"
    },
    {
      "inputs": [
        {
          "internalType": "address",
          "name": "owner",
          "type": "address"
        }
      ],
      "name": "balanceOf",
      "outputs": [
        {
          "internalType": "uint256",
          "name": "",
          "type": "uint256"
        }
      ],
      "stateMutability": "view",
      "type": "function"
    },
    {
      "inputs": [
        {
          "internalType": "uint256",
          "name": "tokenId",
          "type": "uint256"
        }
      ],
      "name": "getApproved",
      "outputs": [
        {
          "internalType": "address",
          "name": "",
          "type": "address"
        }
      ],
      "stateMutability": "view",
      "type": "function"
    },
    {
      "inputs": [
        {
          "internalType": "address",
          "name": "owner",
          "type": "address"
        },
        {
          "internalType": "address",
          "name": "operator",
          "type": "address"
        }
      ],
      "name": "isApprovedForAll",
      "outputs": [
        {
          "internalType": "bool",
          "name": "",
          "type": "bool"
        }
      ],
      "stateMutability": "view",
      "type": "function"
    },
    {
      "inputs": [
        {
          "internalType": "int256",
          "name": "highValue",
          "type": "int256"
        }
      ],
      "name": "mintNft",
      "outputs": [],
      "stateMutability": "nonpayable",
      "type": "function"
    },
    {
      "inputs": [],
      "name": "name",
      "outputs": [
        {
          "internalType": "string",
          "name": "",
          "type": "string"
        }
      ],
      "stateMutability": "view",
      "type": "function"
    },
    {
      "inputs": [],
      "name": "owner",
      "outputs": [
        {
          "internalType": "address",
          "name": "",
          "type": "address"
        }
      ],
      "stateMutability": "view",
      "type": "function"
    },
    {
      "inputs": [
        {
          "internalType": "uint256",
          "name": "tokenId",
          "type": "uint256"
        }
      ],
      "name": "ownerOf",
      "outputs": [
        {
          "internalType": "address",
          "name": "",
          "type": "address"
        }
      ],
      "stateMutability": "view",
      "type": "function"
    },
    {
      "inputs": [],
      "name": "renounceOwnership",
      "outputs": [],
      "stateMutability": "nonpayable",
      "type": "function"
    },
    {
      "inputs": [
        {
          "internalType": "uint256",
          "name": "",
          "type": "uint256"
        }
      ],
      "name": "s_tokenIdToHighValue",
      "outputs": [
        {
          "internalType": "int256",
          "name": "",
          "type": "int256"
        }
      ],
      "stateMutability": "view",
      "type": "function"
    },
    {
      "inputs": [
        {
          "internalType": "address",
          "name": "from",
          "type": "address"
        },
        {
          "internalType": "address",
          "name": "to",
          "type": "address"
        },
        {
          "internalType": "uint256",
          "name": "tokenId",
          "type": "uint256"
        }
      ],
      "name": "safeTransferFrom",
      "outputs": [],
      "stateMutability": "nonpayable",
      "type": "function"
    },
    {
      "inputs": [
        {
          "internalType": "address",
          "name": "from",
          "type": "address"
        },
        {
          "internalType": "address",
          "name": "to",
          "type": "address"
        },
        {
          "internalType": "uint256",
          "name": "tokenId",
          "type": "uint256"
        },
        {
          "internalType": "bytes",
          "name": "data",
          "type": "bytes"
        }
      ],
      "name": "safeTransferFrom",
      "outputs": [],
      "stateMutability": "nonpayable",
      "type": "function"
    },
    {
      "inputs": [
        {
          "internalType": "address",
          "name": "operator",
          "type": "address"
        },
        {
          "internalType": "bool",
          "name": "approved",
          "type": "bool"
        }
      ],
      "name": "setApprovalForAll",
      "outputs": [],
      "stateMutability": "nonpayable",
      "type": "function"
    },
    {
      "inputs": [
        {
          "internalType": "bytes4",
          "name": "interfaceId",
          "type": "bytes4"
        }
      ],
      "name": "supportsInterface",
      "outputs": [
        {
          "internalType": "bool",
          "name": "",
          "type": "bool"
        }
      ],
      "stateMutability": "view",
      "type": "function"
    },
    {
      "inputs": [
        {
          "internalType": "string",
          "name": "svg",
          "type": "string"
        }
      ],
      "name": "svgToImageURI",
      "outputs": [
        {
          "internalType": "string",
          "name": "",
          "type": "string"
        }
      ],
      "stateMutability": "pure",
      "type": "function"
    },
    {
      "inputs": [],
      "name": "symbol",
      "outputs": [
        {
          "internalType": "string",
          "name": "",
          "type": "string"
        }
      ],
      "stateMutability": "view",
      "type": "function"
    },
    {
      "inputs": [
        {
          "internalType": "uint256",
          "name": "tokenId",
          "type": "uint256"
        }
      ],
      "name": "tokenURI",
      "outputs": [
        {
          "internalType": "string",
          "name": "",
          "type": "string"
        }
      ],
      "stateMutability": "view",
      "type": "function"
    },
    {
      "inputs": [
        {
          "internalType": "address",
          "name": "from",
          "type": "address"
        },
        {
          "internalType": "address",
          "name": "to",
          "type": "address"
        },
        {
          "internalType": "uint256",
          "name": "tokenId",
          "type": "uint256"
        }
      ],
      "name": "transferFrom",
      "outputs": [],
      "stateMutability": "nonpayable",
      "type": "function"
    },
    {
      "inputs": [
        {
          "internalType": "address",
          "name": "newOwner",
          "type": "address"
        }
      ],
      "name": "transferOwnership",
      "outputs": [],
      "stateMutability": "nonpayable",
      "type": "function"
    }
  ],
  "transactionHash": "0x22a0d50d854dacc8eca86ed18982dbaddd7038b8c70b4d54183c21af59b0a91d",
  "args": [
    "<?xml version=\"1.0\" standalone=\"no\"?>\n<svg width=\"1024px\" height=\"1024px\" viewBox=\"0 0 1024 1024\" xmlns=\"http://www.w3.org/2000/svg\">\n  <path fill=\"#333\" d=\"M512 64C264.6 64 64 264.6 64 512s200.6 448 448 448 448-200.6 448-448S759.4 64 512 64zm0 820c-205.4 0-372-166.6-372-372s166.6-372 372-372 372 166.6 372 372-166.6 372-372 372z\"/>\n  <path fill=\"#E6E6E6\" d=\"M512 140c-205.4 0-372 166.6-372 372s166.6 372 372 372 372-166.6 372-372-166.6-372-372-372zM288 421a48.01 48.01 0 0 1 96 0 48.01 48.01 0 0 1-96 0zm376 272h-48.1c-4.2 0-7.8-3.2-8.1-7.4C604 636.1 562.5 597 512 597s-92.1 39.1-95.8 88.6c-.3 4.2-3.9 7.4-8.1 7.4H360a8 8 0 0 1-8-8.4c4.4-84.3 74.5-151.6 160-151.6s155.6 67.3 160 151.6a8 8 0 0 1-8 8.4zm24-224a48.01 48.01 0 0 1 0-96 48.01 48.01 0 0 1 0 96z\"/>\n  <path fill=\"#333\" d=\"M288 421a48 48 0 1 0 96 0 48 48 0 1 0-96 0zm224 112c-85.5 0-155.6 67.3-160 151.6a8 8 0 0 0 8 8.4h48.1c4.2 0 7.8-3.2 8.1-7.4 3.7-49.5 45.3-88.6 95.8-88.6s92 39.1 95.8 88.6c.3 4.2 3.9 7.4 8.1 7.4H664a8 8 0 0 0 8-8.4C667.6 600.3 597.5 533 512 533zm128-112a48 48 0 1 0 96 0 48 48 0 1 0-96 0z\"/>\n</svg>\n",
    "<svg viewBox=\"0 0 200 200\" width=\"400\"  height=\"400\" xmlns=\"http://www.w3.org/2000/svg\">\n  <circle cx=\"100\" cy=\"100\" fill=\"yellow\" r=\"78\" stroke=\"black\" stroke-width=\"3\"/>\n  <g class=\"eyes\">\n    <circle cx=\"61\" cy=\"82\" r=\"12\"/>\n    <circle cx=\"127\" cy=\"82\" r=\"12\"/>\n  </g>\n  <path d=\"m136.81 116.53c.69 26.17-64.11 42-81.52-.73\" style=\"fill:none; stroke: black; stroke-width: 3;\"/>\n</svg>"
  ],
  "numDeployments": 5,
  "solcInputHash": "c707d82a037bf0ee06021615ef061766",
  "bytecode": "0x60806040523480156200001157600080fd5b50604051620038c2380380620038c28339818101604052810190620000379190620006a0565b6040518060400160405280600f81526020017f44796e616d696320535647204e465400000000000000000000000000000000008152506040518060400160405280600381526020017f44534d00000000000000000000000000000000000000000000000000000000008152508160009080519060200190620000bb92919062000453565b508060019080519060200190620000d492919062000453565b505050620000f7620000eb6200015960201b60201c565b6200016160201b60201c565b600060088190555062000110826200022760201b60201c565b600990805190602001906200012792919062000453565b5062000139816200022760201b60201c565b600a90805190602001906200015092919062000453565b50505062000976565b600033905090565b6000600660009054906101000a900473ffffffffffffffffffffffffffffffffffffffff16905081600660006101000a81548173ffffffffffffffffffffffffffffffffffffffff021916908373ffffffffffffffffffffffffffffffffffffffff1602179055508173ffffffffffffffffffffffffffffffffffffffff168173ffffffffffffffffffffffffffffffffffffffff167f8be0079c531659141344cd1fd0a4f28419497f9722a3daafe3b4186f6b6457e060405160405180910390a35050565b60606000620002628360405160200162000242919062000772565b604051602081830303815290604052620002c560201b62000d441760201c565b90506040518060400160405280601a81526020017f646174613a696d6167652f7376672b786d6c3b6261736536342c00000000000081525081604051602001620002ae9291906200078b565b604051602081830303815290604052915050919050565b6060600082511415620002ea576040518060200160405280600081525090506200044e565b60006040518060600160405280604081526020016200388260409139905060006003600285516200031c9190620007ec565b62000328919062000878565b6004620003369190620008b0565b90506000602082620003499190620007ec565b67ffffffffffffffff81111562000365576200036462000532565b5b6040519080825280601f01601f191660200182016040528015620003985781602001600182028036833780820191505090505b509050818152600183018586518101602084015b8183101562000409576003830192508251603f8160121c168501518253600182019150603f81600c1c168501518253600182019150603f8160061c168501518253600182019150603f8116850151825360018201915050620003ac565b600389510660018114620004265760028114620004375762000442565b613d3d60f01b600283035262000442565b603d60f81b60018303525b50505050508093505050505b919050565b828054620004619062000940565b90600052602060002090601f016020900481019282620004855760008555620004d1565b82601f10620004a057805160ff1916838001178555620004d1565b82800160010185558215620004d1579182015b82811115620004d0578251825591602001919060010190620004b3565b5b509050620004e09190620004e4565b5090565b5b80821115620004ff576000816000905550600101620004e5565b5090565b6000604051905090565b600080fd5b600080fd5b600080fd5b600080fd5b6000601f19601f8301169050919050565b7f4e487b7100000000000000000000000000000000000000000000000000000000600052604160045260246000fd5b6200056c8262000521565b810181811067ffffffffffffffff821117156200058e576200058d62000532565b5b80604052505050565b6000620005a362000503565b9050620005b1828262000561565b919050565b600067ffffffffffffffff821115620005d457620005d362000532565b5b620005df8262000521565b9050602081019050919050565b60005b838110156200060c578082015181840152602081019050620005ef565b838111156200061c576000848401525b50505050565b6000620006396200063384620005b6565b62000597565b9050828152602081018484840111156200065857620006576200051c565b5b62000665848285620005ec565b509392505050565b600082601f83011262000685576200068462000517565b5b81516200069784826020860162000622565b91505092915050565b60008060408385031215620006ba57620006b96200050d565b5b600083015167ffffffffffffffff811115620006db57620006da62000512565b5b620006e9858286016200066d565b925050602083015167ffffffffffffffff8111156200070d576200070c62000512565b5b6200071b858286016200066d565b9150509250929050565b600081519050919050565b600081905092915050565b6000620007488262000725565b62000754818562000730565b935062000766818560208601620005ec565b80840191505092915050565b60006200078082846200073b565b915081905092915050565b60006200079982856200073b565b9150620007a782846200073b565b91508190509392505050565b6000819050919050565b7f4e487b7100000000000000000000000000000000000000000000000000000000600052601160045260246000fd5b6000620007f982620007b3565b91506200080683620007b3565b9250827fffffffffffffffffffffffffffffffffffffffffffffffffffffffffffffffff038211156200083e576200083d620007bd565b5b828201905092915050565b7f4e487b7100000000000000000000000000000000000000000000000000000000600052601260045260246000fd5b60006200088582620007b3565b91506200089283620007b3565b925082620008a557620008a462000849565b5b828204905092915050565b6000620008bd82620007b3565b9150620008ca83620007b3565b9250817fffffffffffffffffffffffffffffffffffffffffffffffffffffffffffffffff0483118215151615620009065762000905620007bd565b5b828202905092915050565b7f4e487b7100000000000000000000000000000000000000000000000000000000600052602260045260246000fd5b600060028204905060018216806200095957607f821691505b6020821081141562000970576200096f62000911565b5b50919050565b612efc80620009866000396000f3fe608060405234801561001057600080fd5b50600436106101215760003560e01c806370a08231116100ad578063b88d4fde11610071578063b88d4fde14610306578063c87b56dd14610322578063e425aded14610352578063e985e9c514610382578063f2fde38b146103b257610121565b806370a0823114610274578063715018a6146102a45780638da5cb5b146102ae57806395d89b41146102cc578063a22cb465146102ea57610121565b80631e930812116100f45780631e930812146101c057806323b872dd146101dc57806330d871c6146101f857806342842e0e146102285780636352211e1461024457610121565b806301ffc9a71461012657806306fdde0314610156578063081812fc14610174578063095ea7b3146101a4575b600080fd5b610140600480360381019061013b9190611b68565b6103ce565b60405161014d9190611bb0565b60405180910390f35b61015e6104b0565b60405161016b9190611c64565b60405180910390f35b61018e60048036038101906101899190611cbc565b610542565b60405161019b9190611d2a565b60405180910390f35b6101be60048036038101906101b99190611d71565b610588565b005b6101da60048036038101906101d59190611de7565b6106a0565b005b6101f660048036038101906101f19190611e14565b61071b565b005b610212600480360381019061020d9190611f9c565b61077b565b60405161021f9190611c64565b60405180910390f35b610242600480360381019061023d9190611e14565b610808565b005b61025e60048036038101906102599190611cbc565b610828565b60405161026b9190611d2a565b60405180910390f35b61028e60048036038101906102899190611fe5565b6108da565b60405161029b9190612021565b60405180910390f35b6102ac610992565b005b6102b66109a6565b6040516102c39190611d2a565b60405180910390f35b6102d46109d0565b6040516102e19190611c64565b60405180910390f35b61030460048036038101906102ff9190612068565b610a62565b005b610320600480360381019061031b9190612149565b610a78565b005b61033c60048036038101906103379190611cbc565b610ada565b6040516103499190611c64565b60405180910390f35b61036c60048036038101906103679190611cbc565b610c14565b60405161037991906121db565b60405180910390f35b61039c600480360381019061039791906121f6565b610c2c565b6040516103a99190611bb0565b60405180910390f35b6103cc60048036038101906103c79190611fe5565b610cc0565b005b60007f80ac58cd000000000000000000000000000000000000000000000000000000007bffffffffffffffffffffffffffffffffffffffffffffffffffffffff1916827bffffffffffffffffffffffffffffffffffffffffffffffffffffffff1916148061049957507f5b5e139f000000000000000000000000000000000000000000000000000000007bffffffffffffffffffffffffffffffffffffffffffffffffffffffff1916827bffffffffffffffffffffffffffffffffffffffffffffffffffffffff1916145b806104a957506104a882610ebd565b5b9050919050565b6060600080546104bf90612265565b80601f01602080910402602001604051908101604052809291908181526020018280546104eb90612265565b80156105385780601f1061050d57610100808354040283529160200191610538565b820191906000526020600020905b81548152906001019060200180831161051b57829003601f168201915b5050505050905090565b600061054d82610f27565b6004600083815260200190815260200160002060009054906101000a900473ffffffffffffffffffffffffffffffffffffffff169050919050565b600061059382610828565b90508073ffffffffffffffffffffffffffffffffffffffff168373ffffffffffffffffffffffffffffffffffffffff161415610604576040517f08c379a00000000000000000000000000000000000000000000000000000000081526004016105fb90612309565b60405180910390fd5b8073ffffffffffffffffffffffffffffffffffffffff16610623610f72565b73ffffffffffffffffffffffffffffffffffffffff16148061065257506106518161064c610f72565b610c2c565b5b610691576040517f08c379a00000000000000000000000000000000000000000000000000000000081526004016106889061239b565b60405180910390fd5b61069b8383610f7a565b505050565b80600b6000600854815260200190815260200160002081905550600860008154809291906106cd906123ea565b91905055506106de33600854611033565b6008547f882d3b5a729a8bb95cf6c0083c99b42ecd9637123d4425bd7b768877fd8af8b08260405161071091906121db565b60405180910390a250565b61072c610726610f72565b82611051565b61076b576040517f08c379a0000000000000000000000000000000000000000000000000000000008152600401610762906124a5565b60405180910390fd5b6107768383836110e6565b505050565b606060006107a7836040516020016107939190612501565b604051602081830303815290604052610d44565b90506040518060400160405280601a81526020017f646174613a696d6167652f7376672b786d6c3b6261736536342c000000000000815250816040516020016107f1929190612518565b604051602081830303815290604052915050919050565b61082383838360405180602001604052806000815250610a78565b505050565b6000806002600084815260200190815260200160002060009054906101000a900473ffffffffffffffffffffffffffffffffffffffff169050600073ffffffffffffffffffffffffffffffffffffffff168173ffffffffffffffffffffffffffffffffffffffff1614156108d1576040517f08c379a00000000000000000000000000000000000000000000000000000000081526004016108c890612588565b60405180910390fd5b80915050919050565b60008073ffffffffffffffffffffffffffffffffffffffff168273ffffffffffffffffffffffffffffffffffffffff16141561094b576040517f08c379a00000000000000000000000000000000000000000000000000000000081526004016109429061261a565b60405180910390fd5b600360008373ffffffffffffffffffffffffffffffffffffffff1673ffffffffffffffffffffffffffffffffffffffff168152602001908152602001600020549050919050565b61099a61134d565b6109a460006113cb565b565b6000600660009054906101000a900473ffffffffffffffffffffffffffffffffffffffff16905090565b6060600180546109df90612265565b80601f0160208091040260200160405190810160405280929190818152602001828054610a0b90612265565b8015610a585780601f10610a2d57610100808354040283529160200191610a58565b820191906000526020600020905b815481529060010190602001808311610a3b57829003601f168201915b5050505050905090565b610a74610a6d610f72565b8383611491565b5050565b610a89610a83610f72565b83611051565b610ac8576040517f08c379a0000000000000000000000000000000000000000000000000000000008152600401610abf906124a5565b60405180910390fd5b610ad4848484846115fe565b50505050565b6060610ae58261165a565b610b24576040517f08c379a0000000000000000000000000000000000000000000000000000000008152600401610b1b90612686565b60405180910390fd5b600060098054610b3390612265565b80601f0160208091040260200160405190810160405280929190818152602001828054610b5f90612265565b8015610bac5780601f10610b8157610100808354040283529160200191610bac565b820191906000526020600020905b815481529060010190602001808311610b8f57829003601f168201915b50505050509050610bbb6116c6565b610bec610bc66104b0565b83604051602001610bd8929190612822565b604051602081830303815290604052610d44565b604051602001610bfd929190612518565b604051602081830303815290604052915050919050565b600b6020528060005260406000206000915090505481565b6000600560008473ffffffffffffffffffffffffffffffffffffffff1673ffffffffffffffffffffffffffffffffffffffff16815260200190815260200160002060008373ffffffffffffffffffffffffffffffffffffffff1673ffffffffffffffffffffffffffffffffffffffff16815260200190815260200160002060009054906101000a900460ff16905092915050565b610cc861134d565b600073ffffffffffffffffffffffffffffffffffffffff168173ffffffffffffffffffffffffffffffffffffffff161415610d38576040517f08c379a0000000000000000000000000000000000000000000000000000000008152600401610d2f906128d9565b60405180910390fd5b610d41816113cb565b50565b6060600082511415610d6757604051806020016040528060008152509050610eb8565b6000604051806060016040528060408152602001612e876040913990506000600360028551610d9691906128f9565b610da0919061297e565b6004610dac91906129af565b90506000602082610dbd91906128f9565b67ffffffffffffffff811115610dd657610dd5611e71565b5b6040519080825280601f01601f191660200182016040528015610e085781602001600182028036833780820191505090505b509050818152600183018586518101602084015b81831015610e77576003830192508251603f8160121c168501518253600182019150603f81600c1c168501518253600182019150603f8160061c168501518253600182019150603f8116850151825360018201915050610e1c565b600389510660018114610e915760028114610ea157610eac565b613d3d60f01b6002830352610eac565b603d60f81b60018303525b50505050508093505050505b919050565b60007f01ffc9a7000000000000000000000000000000000000000000000000000000007bffffffffffffffffffffffffffffffffffffffffffffffffffffffff1916827bffffffffffffffffffffffffffffffffffffffffffffffffffffffff1916149050919050565b610f308161165a565b610f6f576040517f08c379a0000000000000000000000000000000000000000000000000000000008152600401610f6690612588565b60405180910390fd5b50565b600033905090565b816004600083815260200190815260200160002060006101000a81548173ffffffffffffffffffffffffffffffffffffffff021916908373ffffffffffffffffffffffffffffffffffffffff160217905550808273ffffffffffffffffffffffffffffffffffffffff16610fed83610828565b73ffffffffffffffffffffffffffffffffffffffff167f8c5be1e5ebec7d5bd14f71427d1e84f3dd0314c0f7b2291e5b200ac8c7c3b92560405160405180910390a45050565b61104d828260405180602001604052806000815250611703565b5050565b60008061105d83610828565b90508073ffffffffffffffffffffffffffffffffffffffff168473ffffffffffffffffffffffffffffffffffffffff16148061109f575061109e8185610c2c565b5b806110dd57508373ffffffffffffffffffffffffffffffffffffffff166110c584610542565b73ffffffffffffffffffffffffffffffffffffffff16145b91505092915050565b8273ffffffffffffffffffffffffffffffffffffffff1661110682610828565b73ffffffffffffffffffffffffffffffffffffffff161461115c576040517f08c379a000000000000000000000000000000000000000000000000000000000815260040161115390612a7b565b60405180910390fd5b600073ffffffffffffffffffffffffffffffffffffffff168273ffffffffffffffffffffffffffffffffffffffff1614156111cc576040517f08c379a00000000000000000000000000000000000000000000000000000000081526004016111c390612b0d565b60405180910390fd5b6111d783838361175e565b6111e2600082610f7a565b6001600360008573ffffffffffffffffffffffffffffffffffffffff1673ffffffffffffffffffffffffffffffffffffffff16815260200190815260200160002060008282546112329190612b2d565b925050819055506001600360008473ffffffffffffffffffffffffffffffffffffffff1673ffffffffffffffffffffffffffffffffffffffff168152602001908152602001600020600082825461128991906128f9565b92505081905550816002600083815260200190815260200160002060006101000a81548173ffffffffffffffffffffffffffffffffffffffff021916908373ffffffffffffffffffffffffffffffffffffffff160217905550808273ffffffffffffffffffffffffffffffffffffffff168473ffffffffffffffffffffffffffffffffffffffff167fddf252ad1be2c89b69c2b068fc378daa952ba7f163c4a11628f55a4df523b3ef60405160405180910390a4611348838383611763565b505050565b611355610f72565b73ffffffffffffffffffffffffffffffffffffffff166113736109a6565b73ffffffffffffffffffffffffffffffffffffffff16146113c9576040517f08c379a00000000000000000000000000000000000000000000000000000000081526004016113c090612bad565b60405180910390fd5b565b6000600660009054906101000a900473ffffffffffffffffffffffffffffffffffffffff16905081600660006101000a81548173ffffffffffffffffffffffffffffffffffffffff021916908373ffffffffffffffffffffffffffffffffffffffff1602179055508173ffffffffffffffffffffffffffffffffffffffff168173ffffffffffffffffffffffffffffffffffffffff167f8be0079c531659141344cd1fd0a4f28419497f9722a3daafe3b4186f6b6457e060405160405180910390a35050565b8173ffffffffffffffffffffffffffffffffffffffff168373ffffffffffffffffffffffffffffffffffffffff161415611500576040517f08c379a00000000000000000000000000000000000000000000000000000000081526004016114f790612c19565b60405180910390fd5b80600560008573ffffffffffffffffffffffffffffffffffffffff1673ffffffffffffffffffffffffffffffffffffffff16815260200190815260200160002060008473ffffffffffffffffffffffffffffffffffffffff1673ffffffffffffffffffffffffffffffffffffffff16815260200190815260200160002060006101000a81548160ff0219169083151502179055508173ffffffffffffffffffffffffffffffffffffffff168373ffffffffffffffffffffffffffffffffffffffff167f17307eab39ab6107e8899845ad3d59bd9653f200f220920489ca2b5937696c31836040516115f19190611bb0565b60405180910390a3505050565b6116098484846110e6565b61161584848484611768565b611654576040517f08c379a000000000000000000000000000000000000000000000000000000000815260040161164b90612cab565b60405180910390fd5b50505050565b60008073ffffffffffffffffffffffffffffffffffffffff166002600084815260200190815260200160002060009054906101000a900473ffffffffffffffffffffffffffffffffffffffff1673ffffffffffffffffffffffffffffffffffffffff1614159050919050565b60606040518060400160405280601d81526020017f646174613a6170706c69636174696f6e2f6a736f6e3b6261736536342c000000815250905090565b61170d83836118ff565b61171a6000848484611768565b611759576040517f08c379a000000000000000000000000000000000000000000000000000000000815260040161175090612cab565b60405180910390fd5b505050565b505050565b505050565b60006117898473ffffffffffffffffffffffffffffffffffffffff16611ad9565b156118f2578373ffffffffffffffffffffffffffffffffffffffff1663150b7a026117b2610f72565b8786866040518563ffffffff1660e01b81526004016117d49493929190612d20565b602060405180830381600087803b1580156117ee57600080fd5b505af192505050801561181f57506040513d601f19601f8201168201806040525081019061181c9190612d81565b60015b6118a2573d806000811461184f576040519150601f19603f3d011682016040523d82523d6000602084013e611854565b606091505b5060008151141561189a576040517f08c379a000000000000000000000000000000000000000000000000000000000815260040161189190612cab565b60405180910390fd5b805181602001fd5b63150b7a0260e01b7bffffffffffffffffffffffffffffffffffffffffffffffffffffffff1916817bffffffffffffffffffffffffffffffffffffffffffffffffffffffff1916149150506118f7565b600190505b949350505050565b600073ffffffffffffffffffffffffffffffffffffffff168273ffffffffffffffffffffffffffffffffffffffff16141561196f576040517f08c379a000000000000000000000000000000000000000000000000000000000815260040161196690612dfa565b60405180910390fd5b6119788161165a565b156119b8576040517f08c379a00000000000000000000000000000000000000000000000000000000081526004016119af90612e66565b60405180910390fd5b6119c46000838361175e565b6001600360008473ffffffffffffffffffffffffffffffffffffffff1673ffffffffffffffffffffffffffffffffffffffff1681526020019081526020016000206000828254611a1491906128f9565b92505081905550816002600083815260200190815260200160002060006101000a81548173ffffffffffffffffffffffffffffffffffffffff021916908373ffffffffffffffffffffffffffffffffffffffff160217905550808273ffffffffffffffffffffffffffffffffffffffff16600073ffffffffffffffffffffffffffffffffffffffff167fddf252ad1be2c89b69c2b068fc378daa952ba7f163c4a11628f55a4df523b3ef60405160405180910390a4611ad560008383611763565b5050565b6000808273ffffffffffffffffffffffffffffffffffffffff163b119050919050565b6000604051905090565b600080fd5b600080fd5b60007fffffffff0000000000000000000000000000000000000000000000000000000082169050919050565b611b4581611b10565b8114611b5057600080fd5b50565b600081359050611b6281611b3c565b92915050565b600060208284031215611b7e57611b7d611b06565b5b6000611b8c84828501611b53565b91505092915050565b60008115159050919050565b611baa81611b95565b82525050565b6000602082019050611bc56000830184611ba1565b92915050565b600081519050919050565b600082825260208201905092915050565b60005b83811015611c05578082015181840152602081019050611bea565b83811115611c14576000848401525b50505050565b6000601f19601f8301169050919050565b6000611c3682611bcb565b611c408185611bd6565b9350611c50818560208601611be7565b611c5981611c1a565b840191505092915050565b60006020820190508181036000830152611c7e8184611c2b565b905092915050565b6000819050919050565b611c9981611c86565b8114611ca457600080fd5b50565b600081359050611cb681611c90565b92915050565b600060208284031215611cd257611cd1611b06565b5b6000611ce084828501611ca7565b91505092915050565b600073ffffffffffffffffffffffffffffffffffffffff82169050919050565b6000611d1482611ce9565b9050919050565b611d2481611d09565b82525050565b6000602082019050611d3f6000830184611d1b565b92915050565b611d4e81611d09565b8114611d5957600080fd5b50565b600081359050611d6b81611d45565b92915050565b60008060408385031215611d8857611d87611b06565b5b6000611d9685828601611d5c565b9250506020611da785828601611ca7565b9150509250929050565b6000819050919050565b611dc481611db1565b8114611dcf57600080fd5b50565b600081359050611de181611dbb565b92915050565b600060208284031215611dfd57611dfc611b06565b5b6000611e0b84828501611dd2565b91505092915050565b600080600060608486031215611e2d57611e2c611b06565b5b6000611e3b86828701611d5c565b9350506020611e4c86828701611d5c565b9250506040611e5d86828701611ca7565b9150509250925092565b600080fd5b600080fd5b7f4e487b7100000000000000000000000000000000000000000000000000000000600052604160045260246000fd5b611ea982611c1a565b810181811067ffffffffffffffff82111715611ec857611ec7611e71565b5b80604052505050565b6000611edb611afc565b9050611ee78282611ea0565b919050565b600067ffffffffffffffff821115611f0757611f06611e71565b5b611f1082611c1a565b9050602081019050919050565b82818337600083830152505050565b6000611f3f611f3a84611eec565b611ed1565b905082815260208101848484011115611f5b57611f5a611e6c565b5b611f66848285611f1d565b509392505050565b600082601f830112611f8357611f82611e67565b5b8135611f93848260208601611f2c565b91505092915050565b600060208284031215611fb257611fb1611b06565b5b600082013567ffffffffffffffff811115611fd057611fcf611b0b565b5b611fdc84828501611f6e565b91505092915050565b600060208284031215611ffb57611ffa611b06565b5b600061200984828501611d5c565b91505092915050565b61201b81611c86565b82525050565b60006020820190506120366000830184612012565b92915050565b61204581611b95565b811461205057600080fd5b50565b6000813590506120628161203c565b92915050565b6000806040838503121561207f5761207e611b06565b5b600061208d85828601611d5c565b925050602061209e85828601612053565b9150509250929050565b600067ffffffffffffffff8211156120c3576120c2611e71565b5b6120cc82611c1a565b9050602081019050919050565b60006120ec6120e7846120a8565b611ed1565b90508281526020810184848401111561210857612107611e6c565b5b612113848285611f1d565b509392505050565b600082601f8301126121305761212f611e67565b5b81356121408482602086016120d9565b91505092915050565b6000806000806080858703121561216357612162611b06565b5b600061217187828801611d5c565b945050602061218287828801611d5c565b935050604061219387828801611ca7565b925050606085013567ffffffffffffffff8111156121b4576121b3611b0b565b5b6121c08782880161211b565b91505092959194509250565b6121d581611db1565b82525050565b60006020820190506121f060008301846121cc565b92915050565b6000806040838503121561220d5761220c611b06565b5b600061221b85828601611d5c565b925050602061222c85828601611d5c565b9150509250929050565b7f4e487b7100000000000000000000000000000000000000000000000000000000600052602260045260246000fd5b6000600282049050600182168061227d57607f821691505b6020821081141561229157612290612236565b5b50919050565b7f4552433732313a20617070726f76616c20746f2063757272656e74206f776e6560008201527f7200000000000000000000000000000000000000000000000000000000000000602082015250565b60006122f3602183611bd6565b91506122fe82612297565b604082019050919050565b60006020820190508181036000830152612322816122e6565b9050919050565b7f4552433732313a20617070726f76652063616c6c6572206973206e6f7420746f60008201527f6b656e206f776e6572206e6f7220617070726f76656420666f7220616c6c0000602082015250565b6000612385603e83611bd6565b915061239082612329565b604082019050919050565b600060208201905081810360008301526123b481612378565b9050919050565b7f4e487b7100000000000000000000000000000000000000000000000000000000600052601160045260246000fd5b60006123f582611c86565b91507fffffffffffffffffffffffffffffffffffffffffffffffffffffffffffffffff821415612428576124276123bb565b5b600182019050919050565b7f4552433732313a2063616c6c6572206973206e6f7420746f6b656e206f776e6560008201527f72206e6f7220617070726f766564000000000000000000000000000000000000602082015250565b600061248f602e83611bd6565b915061249a82612433565b604082019050919050565b600060208201905081810360008301526124be81612482565b9050919050565b600081905092915050565b60006124db82611bcb565b6124e581856124c5565b93506124f5818560208601611be7565b80840191505092915050565b600061250d82846124d0565b915081905092915050565b600061252482856124d0565b915061253082846124d0565b91508190509392505050565b7f4552433732313a20696e76616c696420746f6b656e2049440000000000000000600082015250565b6000612572601883611bd6565b915061257d8261253c565b602082019050919050565b600060208201905081810360008301526125a181612565565b9050919050565b7f4552433732313a2061646472657373207a65726f206973206e6f74206120766160008201527f6c6964206f776e65720000000000000000000000000000000000000000000000602082015250565b6000612604602983611bd6565b915061260f826125a8565b604082019050919050565b60006020820190508181036000830152612633816125f7565b9050919050565b7f55524920517565727920666f72206e6f6e6578697374656e7420746f6b656e00600082015250565b6000612670601f83611bd6565b915061267b8261263a565b602082019050919050565b6000602082019050818103600083015261269f81612663565b9050919050565b7f7b226e616d65223a220000000000000000000000000000000000000000000000600082015250565b60006126dc6009836124c5565b91506126e7826126a6565b600982019050919050565b7f222c20226465736372697074696f6e223a2022416e204e46542074686174206360008201527f68616e676573206261736564206f6e2074686520436861696e6c696e6b20466560208201527f6564222c00000000000000000000000000000000000000000000000000000000604082015250565b60006127746044836124c5565b915061277f826126f2565b604482019050919050565b7f2261747472696275746573223a205b7b2274726169745f74797065223a22636f60008201527f6f6c6e657373222c202276616c7565223a3139397d5d2c2022696d616765223a60208201527f2200000000000000000000000000000000000000000000000000000000000000604082015250565b600061280c6041836124c5565b91506128178261278a565b604182019050919050565b600061282d826126cf565b915061283982856124d0565b915061284482612767565b915061284f826127ff565b915061285b82846124d0565b91508190509392505050565b7f4f776e61626c653a206e6577206f776e657220697320746865207a65726f206160008201527f6464726573730000000000000000000000000000000000000000000000000000602082015250565b60006128c3602683611bd6565b91506128ce82612867565b604082019050919050565b600060208201905081810360008301526128f2816128b6565b9050919050565b600061290482611c86565b915061290f83611c86565b9250827fffffffffffffffffffffffffffffffffffffffffffffffffffffffffffffffff03821115612944576129436123bb565b5b828201905092915050565b7f4e487b7100000000000000000000000000000000000000000000000000000000600052601260045260246000fd5b600061298982611c86565b915061299483611c86565b9250826129a4576129a361294f565b5b828204905092915050565b60006129ba82611c86565b91506129c583611c86565b9250817fffffffffffffffffffffffffffffffffffffffffffffffffffffffffffffffff04831182151516156129fe576129fd6123bb565b5b828202905092915050565b7f4552433732313a207472616e736665722066726f6d20696e636f72726563742060008201527f6f776e6572000000000000000000000000000000000000000000000000000000602082015250565b6000612a65602583611bd6565b9150612a7082612a09565b604082019050919050565b60006020820190508181036000830152612a9481612a58565b9050919050565b7f4552433732313a207472616e7366657220746f20746865207a65726f2061646460008201527f7265737300000000000000000000000000000000000000000000000000000000602082015250565b6000612af7602483611bd6565b9150612b0282612a9b565b604082019050919050565b60006020820190508181036000830152612b2681612aea565b9050919050565b6000612b3882611c86565b9150612b4383611c86565b925082821015612b5657612b556123bb565b5b828203905092915050565b7f4f776e61626c653a2063616c6c6572206973206e6f7420746865206f776e6572600082015250565b6000612b97602083611bd6565b9150612ba282612b61565b602082019050919050565b60006020820190508181036000830152612bc681612b8a565b9050919050565b7f4552433732313a20617070726f766520746f2063616c6c657200000000000000600082015250565b6000612c03601983611bd6565b9150612c0e82612bcd565b602082019050919050565b60006020820190508181036000830152612c3281612bf6565b9050919050565b7f4552433732313a207472616e7366657220746f206e6f6e20455243373231526560008201527f63656976657220696d706c656d656e7465720000000000000000000000000000602082015250565b6000612c95603283611bd6565b9150612ca082612c39565b604082019050919050565b60006020820190508181036000830152612cc481612c88565b9050919050565b600081519050919050565b600082825260208201905092915050565b6000612cf282612ccb565b612cfc8185612cd6565b9350612d0c818560208601611be7565b612d1581611c1a565b840191505092915050565b6000608082019050612d356000830187611d1b565b612d426020830186611d1b565b612d4f6040830185612012565b8181036060830152612d618184612ce7565b905095945050505050565b600081519050612d7b81611b3c565b92915050565b600060208284031215612d9757612d96611b06565b5b6000612da584828501612d6c565b91505092915050565b7f4552433732313a206d696e7420746f20746865207a65726f2061646472657373600082015250565b6000612de4602083611bd6565b9150612def82612dae565b602082019050919050565b60006020820190508181036000830152612e1381612dd7565b9050919050565b7f4552433732313a20746f6b656e20616c7265616479206d696e74656400000000600082015250565b6000612e50601c83611bd6565b9150612e5b82612e1a565b602082019050919050565b60006020820190508181036000830152612e7f81612e43565b905091905056fe4142434445464748494a4b4c4d4e4f505152535455565758595a6162636465666768696a6b6c6d6e6f707172737475767778797a303132333435363738392b2fa26469706673582212201d980f1f4cf2ff5a2261ddbfdde024935802d3368a2264d77214635ebe1d83d364736f6c634300080900334142434445464748494a4b4c4d4e4f505152535455565758595a6162636465666768696a6b6c6d6e6f707172737475767778797a303132333435363738392b2f",
  "devdoc": {
    "kind": "dev",
    "methods": {
      "approve(address,uint256)": {
        "details": "See {IERC721-approve}."
      },
      "balanceOf(address)": {
        "details": "See {IERC721-balanceOf}."
      },
      "getApproved(uint256)": {
        "details": "See {IERC721-getApproved}."
      },
      "isApprovedForAll(address,address)": {
        "details": "See {IERC721-isApprovedForAll}."
      },
      "name()": {
        "details": "See {IERC721Metadata-name}."
      },
      "owner()": {
        "details": "Returns the address of the current owner."
      },
      "ownerOf(uint256)": {
        "details": "See {IERC721-ownerOf}."
      },
      "renounceOwnership()": {
        "details": "Leaves the contract without owner. It will not be possible to call `onlyOwner` functions anymore. Can only be called by the current owner. NOTE: Renouncing ownership will leave the contract without an owner, thereby removing any functionality that is only available to the owner."
      },
      "safeTransferFrom(address,address,uint256)": {
        "details": "See {IERC721-safeTransferFrom}."
      },
      "safeTransferFrom(address,address,uint256,bytes)": {
        "details": "See {IERC721-safeTransferFrom}."
      },
      "setApprovalForAll(address,bool)": {
        "details": "See {IERC721-setApprovalForAll}."
      },
      "supportsInterface(bytes4)": {
        "details": "See {IERC165-supportsInterface}."
      },
      "symbol()": {
        "details": "See {IERC721Metadata-symbol}."
      },
      "tokenURI(uint256)": {
        "details": "See {IERC721Metadata-tokenURI}."
      },
      "transferFrom(address,address,uint256)": {
        "details": "See {IERC721-transferFrom}."
      },
      "transferOwnership(address)": {
        "details": "Transfers ownership of the contract to a new account (`newOwner`). Can only be called by the current owner."
      }
    },
    "version": 1
  },
  "userdoc": {
    "kind": "user",
    "methods": {},
    "version": 1
  },
  "storageLayout": {
    "storage": [
      {
        "astId": 959,
        "contract": "contracts/DyanmicSvgNft.sol:DynamicSvgNft",
        "label": "_name",
        "offset": 0,
        "slot": "0",
        "type": "t_string_storage"
      },
      {
        "astId": 961,
        "contract": "contracts/DyanmicSvgNft.sol:DynamicSvgNft",
        "label": "_symbol",
        "offset": 0,
        "slot": "1",
        "type": "t_string_storage"
      },
      {
        "astId": 965,
        "contract": "contracts/DyanmicSvgNft.sol:DynamicSvgNft",
        "label": "_owners",
        "offset": 0,
        "slot": "2",
        "type": "t_mapping(t_uint256,t_address)"
      },
      {
        "astId": 969,
        "contract": "contracts/DyanmicSvgNft.sol:DynamicSvgNft",
        "label": "_balances",
        "offset": 0,
        "slot": "3",
        "type": "t_mapping(t_address,t_uint256)"
      },
      {
        "astId": 973,
        "contract": "contracts/DyanmicSvgNft.sol:DynamicSvgNft",
        "label": "_tokenApprovals",
        "offset": 0,
        "slot": "4",
        "type": "t_mapping(t_uint256,t_address)"
      },
      {
        "astId": 979,
        "contract": "contracts/DyanmicSvgNft.sol:DynamicSvgNft",
        "label": "_operatorApprovals",
        "offset": 0,
        "slot": "5",
        "type": "t_mapping(t_address,t_mapping(t_address,t_bool))"
      },
      {
        "astId": 828,
        "contract": "contracts/DyanmicSvgNft.sol:DynamicSvgNft",
        "label": "_owner",
        "offset": 0,
        "slot": "6",
        "type": "t_address"
      },
      {
        "astId": 2728,
        "contract": "contracts/DyanmicSvgNft.sol:DynamicSvgNft",
        "label": "change3",
        "offset": 0,
        "slot": "7",
        "type": "t_uint256"
      },
      {
        "astId": 2730,
        "contract": "contracts/DyanmicSvgNft.sol:DynamicSvgNft",
        "label": "s_tokenCounter",
        "offset": 0,
        "slot": "8",
        "type": "t_uint256"
      },
      {
        "astId": 2732,
        "contract": "contracts/DyanmicSvgNft.sol:DynamicSvgNft",
        "label": "i_lowImageURI",
        "offset": 0,
        "slot": "9",
        "type": "t_string_storage"
      },
      {
        "astId": 2734,
        "contract": "contracts/DyanmicSvgNft.sol:DynamicSvgNft",
        "label": "i_highImageURI",
        "offset": 0,
        "slot": "10",
        "type": "t_string_storage"
      },
      {
        "astId": 2741,
        "contract": "contracts/DyanmicSvgNft.sol:DynamicSvgNft",
        "label": "s_tokenIdToHighValue",
        "offset": 0,
        "slot": "11",
        "type": "t_mapping(t_uint256,t_int256)"
      }
    ],
    "types": {
      "t_address": {
        "encoding": "inplace",
        "label": "address",
        "numberOfBytes": "20"
      },
      "t_bool": {
        "encoding": "inplace",
        "label": "bool",
        "numberOfBytes": "1"
      },
      "t_int256": {
        "encoding": "inplace",
        "label": "int256",
        "numberOfBytes": "32"
      },
      "t_mapping(t_address,t_bool)": {
        "encoding": "mapping",
        "key": "t_address",
        "label": "mapping(address => bool)",
        "numberOfBytes": "32",
        "value": "t_bool"
      },
      "t_mapping(t_address,t_mapping(t_address,t_bool))": {
        "encoding": "mapping",
        "key": "t_address",
        "label": "mapping(address => mapping(address => bool))",
        "numberOfBytes": "32",
        "value": "t_mapping(t_address,t_bool)"
      },
      "t_mapping(t_address,t_uint256)": {
        "encoding": "mapping",
        "key": "t_address",
        "label": "mapping(address => uint256)",
        "numberOfBytes": "32",
        "value": "t_uint256"
      },
      "t_mapping(t_uint256,t_address)": {
        "encoding": "mapping",
        "key": "t_uint256",
        "label": "mapping(uint256 => address)",
        "numberOfBytes": "32",
        "value": "t_address"
      },
      "t_mapping(t_uint256,t_int256)": {
        "encoding": "mapping",
        "key": "t_uint256",
        "label": "mapping(uint256 => int256)",
        "numberOfBytes": "32",
        "value": "t_int256"
      },
      "t_string_storage": {
        "encoding": "bytes",
        "label": "string",
        "numberOfBytes": "32"
      },
      "t_uint256": {
        "encoding": "inplace",
        "label": "uint256",
        "numberOfBytes": "32"
      }
    }
  }
}